:1000000080312B28073008007E14803140017F08A2
:10001000A4004E01961A8C1E1128B431B3248031ED
:1000200026280B1F2628191B0F1F1D2842016A08AE
:100030008A0069080A0080312628991B8F1F26280C
:1000400043016E088A006D080A00803140012408CF
:10005000FF007E10090080312D28D53084008D30BE
:1000600085005C308600013087000B30BE31DF2612
:100070008031FB01FC01FD01D73084000030850098
:100080000730BE31D9268031203084000130850010
:100090003C30BE31D9268031A0308400013085004B
:1000A0004530BE31D92680312030840002308500B1
:1000B0004B30BE31D9268031B73084000230850004
:1000C0001430BE31D92680312030840003308500C1
:1000D0004030BE31D9268031A03084000330850005
:1000E0004030BE31D9267E104001B031D2280034D4
:1000F0000034003400340034003400340034003460
:10010000003400340034003400340034003400344F
:10011000003400340034003400340034003400343F
:10012000003400340034003400340034003400342F
:10013000003400340034003400340034003400341F
:10014000003400340034003400340034003400340F
:10015000003400340F34803438340F34FE343834F3
:100160000F34803438340034003400340034003428
:1001700000340034003400340034003400340034DF
:1001800000340034003400340034013400340034CE
:100190000634003400340C34003400343834003475
:1001A00000343134003400340634003400340C346C
:1001B0000034003438340034003430340034003437
:1001C000003400340034003400340034003461342E
:1001D000803400346734F8340734F9348034003420
:1001E00061348034003461348034003461348034CC
:1001F00000346134803400346734F8340734F9341F
:1002000080340034613480340034003400340034ED
:10021000003400340034003400340134C034E0349D
:100220000334E034F0340634303408340434183401
:1002300008341F34FF34FE3404340E3408340734D9
:100240008734F03403348134E03400340034003433
:100250000034003400340134F034003406340C34FB
:10026000003404340434083406340C34703401345B
:10027000F934C03400340E34003400343B34E034FC
:100280000034EC34183407340834083404340C34A3
:10029000183400340334E0340034003400340034C3
:1002A0000134E03400340734F0340334F8341834C3
:1002B00004341C3408340434173408340734E1346B
:1002C000D0340334C034E03400342334B034003448
:1002D0003C34083400342034083400340034103402
:1002E000003400340034003400340034013400346D
:1002F00000343134003400343234003400341C34DF
:10030000003400340034003400340034003400344D
:10031000003400340034003400340034003400343D
:10032000003400340034003400340034003400342D
:10033000003400340034003400340034003400341D
:1003400000340034003400340034003400347F348E
:1003500000340134FF34C03407348034F0340C34BA
:10036000003418341034003404342034003402349F
:1003700000340034003400340034003420340034BD
:1003800002341034003404340C340034183407348C
:100390008034F0340134FF34C03400347F3400340E
:1003A00000340034003400340034003400340034AD
:1003B000003400340034003400340034003400349D
:1003C00000340034003442340034003466340034E5
:1003D00000346634003400343C34003400341834C3
:1003E00000340334FF34C034003418340034003493
:1003F0003C34003400346634003400346634003455
:100400000034423400340034003400340034083402
:10041000003400340834003400340834003400342C
:10042000083400340034083400340134FF34C0345C
:100430000034083400340034083400340034083404
:1004400000340034083400340034083400340034FC
:1004500000340034003400340134003400343134CA
:10046000003400343234003400341C34003400349E
:1004700000340034003400340034003400340034DC
:1004800000340034003400340034003400340034CC
:1004900000340034003400340034003400340834B4
:1004A000003400340834003400340834003400349C
:1004B0000834003400340834003400340834003484
:1004C0000034083400340034083400340034083474
:1004D0000034003408340034003400340034003474
:1004E0000034003400340034003400340034383434
:1004F00000340034383400340034383400340034EC
:10050000003400340034003400340034003400344B
:10051000003400340034003400340034003400343B
:10052000003400340034003400340034003400342B
:100530000634003400341C34003400347034003489
:100540000134803400340E34003400343834003444
:100550000034C03400340734003400341C34003418
:1005600000343034003400340034003400340034BB
:100570000034003400347F3480340134FF34E034FC
:1005800003348034703406340034183404340034B6
:100590000834043400340834063400341834033486
:1005A000803470340134FF34E03400347F348034DC
:1005B000003400340034003400340034003400349B
:1005C0000034013400340834013400340834013478
:1005D000003408340334FF34F8340734FF34F8347B
:1005E000003400340834003400340834003400345B
:1005F0000834003400340034003400340034003453
:10060000003400340134C03438340234C034583437
:10061000043400349834043401341834043402347B
:10062000183404340434183406341C3418340334B5
:10063000F83418340134E034F83400340034003431
:100640000034003400340034003400340134C03449
:10065000E0340334C034F034043400340834043457
:1006600008340834043408340834063418340834A0
:100670000334F43418340134E734F03400340134F2
:10068000E0340034003400340034003400340034EA
:100690000034003400340334003400340D340034AA
:1006A00000341134003400346134003400348134B7
:1006B00008340334013408340734FF34F8340F3479
:1006C000FF34F83400340134083400340134083481
:1006D000003400340034003400340034003400347A
:1006E000E0340734FC34D03406340834083406349B
:1006F0001034083406341034083406341034083406
:1007000006341834383406340F34F03406340734E1
:10071000C034003400340034003400340034003479
:100720000034003400343F3480340134FF34E0348A
:10073000033484343034023408341834043410342C
:1007400008340434103408340434103408340734C2
:100750001834103403340F34F03400340734C03408
:1007600000340034003400340034003400340034E9
:1007700000340334C0340034073400340034063409
:100780000034003406340034F83406340734F834C6
:100790000634183400340634E034003407340034AE
:1007A00000340634003400340034003400340034A3
:1007B000003400340134E134E0340334F734F034ED
:1007C00006343434103404341834083404341834FF
:1007D000083404340C34083404340C34083406343B
:1007E000163418340334F334F0340134C134E034B3
:1007F0000034003400340034003400340034F83461
:1008000000340334FC3430340334063438340434D4
:100810000234083404340234083404340234083412
:1008200004340434103403340834F0340134FF3415
:10083000C03400347F3400340034003400340034D9
:100840000034003400340034003400340034003408
:100850000034003400340034003400340034703488
:100860003834003470343834003470343834003460
:1008700000340034003400340034003400340034D8
:1008800000340034003400340034003400340034C8
:1008900000340034003400340034003400340034B8
:1008A00000340034003430341A34003430341C3412
:1008B0000034003400340034003400340034003498
:1008C0000034003400340034003400340034003488
:1008D0000034003400340034003400340834003470
:1008E00000341434003400342234003400344134F1
:1008F0000034003480348034013400344034023415
:100900000034203404340034103408340034083403
:100910000034003400340034003400340034213416
:1009200000340034213400340034213400340034E5
:1009300021340034003421340034003421340034B4
:1009400000342134003400342134003400342134A4
:1009500000340034213400340034003400340034D6
:1009600000340034003400340034083400340834D7
:1009700004340034103402340034203401340034A0
:100980004034003480348034003441340034003446
:100990002234003400341434003400340834003479
:1009A0000034003400340034003400340334C034E4
:1009B00000340434C03400340434003400340834C7
:1009C0000034383408340F343834083408343834B8
:1009D0000834103400340C34303400340734E0343C
:1009E00000340334C03400340034003400340034A4
:1009F0000034003400343F3480340034FF34E034B9
:100A000003348034703402340F34103406347034BC
:100A100088340434C03488340434833408340434CF
:100A20007F3488340234C0349034033401342034A9
:100A30000034FE34403400340034083400340034D0
:100A4000183400340134F83400343E3408340134AE
:100A5000C23400340734023400340734E234003442
:100A60000034FE34003400341F34C8340034013400
:100A7000F83400340034383400340034083404349A
:100A8000003408340734FF34F8340734FF34F834C2
:100A90000434083408340434083408340434083482
:100AA0000834043408340834063418340834033461
:100AB000F43418340134E734F03400340134E034D1
:100AC00000340034003400340034003400343F3447
:100AD00080340134FF34E034033480347034023421
:100AE0000034183404340034083404340034083436
:100AF0000434003408340434003410340634003430
:100B0000203407348034C0340034003400340434DA
:100B1000003408340734FF34F8340734FF34F83431
:100B20000434003408340434003408340434003409
:100B300008340434003418340234003410340334DC
:100B4000803470340134FF34E03400347F34803436
:100B50000034003400340434003408340734FF34E3
:100B6000F8340734FF34F8340434083408340434D7
:100B7000083408340434083408340434083408349D
:100B800004343E3408340434003408340634003469
:100B90001834013400346034003400340034043438
:100BA000003408340734FF34F8340734FF34F834A1
:100BB0000434083408340434083400340434083469
:100BC000003404340834003404343E340034063431
:100BD00000340034063400340034013480340034EE
:100BE00000340034003400340034003400343F3426
:100BF00080340134FF34E0340334803470340634FC
:100C00000034183404340034083404340234083412
:100C100004340234083402340334F03407348334A7
:100C2000F03400340234003400340234003404342C
:100C3000003408340734FF34F8340734FF34F83410
:100C400004340834083400340834003400340834E0
:100C500000340034083400340034083400340434E0
:100C6000083408340734FF34F8340734FF34F834D8
:100C700004340034083400340034003400340034C8
:100C800000340434003408340434003408340434A8
:100C9000003408340734FF34F8340734FF34F834B0
:100CA0000434003408340434003408340434003488
:100CB000083400340034003400340034003400348C
:100CC0000034003400340034063400340034073477
:100CD000003400340134043400340134043400346A
:100CE00001340434003403340734FF34FE34073451
:100CF000FF34FC3404340034003404340034003451
:100D00000434003400340434003408340734FF342D
:100D1000F8340734FF34F83404340C340834003425
:100D20001834003400343E3400340434C734803482
:100D300005340334C83406340034F8340434003441
:100D400038340434003418340034003408340434A3
:100D5000003408340734FF34F8340734FF34F834EF
:100D600004340034083400340034083400340034CF
:100D700008340034003408340034003408340034BB
:100D80000034083400340034183400340034603443
:100D90000034003400340434003408340734FF34A1
:100DA000F8340734803408340734FC340034003419
:100DB0007F34C03400340334F83400340734C03492
:100DC0000034783400340734803408340734FF3476
:100DD000F8340734FF34F83404340034083404346D
:100DE000003408340734FF34F8340734003408344E
:100DF0000334C03400340034E03400340034383478
:100E0000003400341E34003400340734003400341D
:100E10000134C03404340034F0340734FF34F8347F
:100E200004340034003400340034003400347F349F
:100E300080340134FF34E0340334803470340634B9
:100E400000341834043400340834043400340834D2
:100E50000634003418340334003430340134FF34A1
:100E6000E03400347F3480340034003400340434FF
:100E7000003408340734FF34F8340734FF34F834CE
:100E800004340434083404340434003404340434A2
:100E9000003404340434003404340434003406349C
:100EA0000C3400340334F83400340134F0340034AA
:100EB00000340034003400340034003400347F3413
:100EC00080340134FF34E034033480347034063429
:100ED0000034883404340034883404340034C83492
:100EE000063400343C34033400343E340134FF34DF
:100EF000E63400347F348434003400340034043465
:100F0000003408340734FF34F8340734FF34F8343D
:100F100004340834083404340834003404340C3401
:100F2000003404340F34003404340B34C034063439
:100F30001034F0340334F03438340134E0340834FD
:100F40000034003408340034003400340134E03418
:100F5000F8340334F034303406343034103404348C
:100F60001834083404341834083404340C34083485
:100F700004340C3408340234063418340234073490
:100F8000F03407348134E034003400340034013468
:100F90008034003406340034003404340034003427
:100FA0000434003400340434003408340734FF348B
:100FB000F8340734FF34F83404340034083404348B
:100FC0000034003404340034003406340034003477
:100FD0000134803400340434003400340734FF34E6
:100FE000E0340734FF34F03404340034183400346F
:100FF0000034083400340034083400340034083439
:10100000003400340834003400340834043400342C
:1010100010340734FF34E034043400340034043432
:10102000003400340634003400340734E034003433
:101030000734FE34003404341F34E0340034013407
:10104000F83400340034383400340134E0340434EB
:101050003E3400340734C0340034063400340034E5
:101060000434003400340434003400340734E034F1
:1010700000340734FF34C03404341F34F8340034EF
:101080000734C0340734F83400340734FF34803474
:1010900004343F34F83400340734C0340434F834B2
:1010A0000034073400340034043400340034003495
:1010B0000034003404340034083406340034183466
:1010C0000734C03478340534F134C83400343E3445
:1010D000003400341F34803404346334E83407347B
:1010E0008034F834063400341834043400340834BE
:1010F0000034003400340434003400340634003446
:1011000000340734803400340734E03408340434C5
:101110007C34083400341F34F83400340734F83495
:101120000034183408340434E0340834073400340C
:101130000034063400340034043400340034003405
:1011400000340034013400340834063400343834B8
:1011500004340034F83404340334E83404340F34F1
:10116000083404347C3408340534F034083407344B
:10117000C034083407340034183404340034603484
:1011800000340034003400340034003400340034BF
:1011900000340034003400340034003400340034AF
:1011A000003400343F34FF34FE3420340034023441
:1011B000203400340234203400340234203400342B
:1011C000023420340034023400340034003400345B
:1011D0000034003400340034003408340034003467
:1011E0000734003400340034C03400340034383460
:1011F000003400340634003400340134C034003488
:1012000000343034003400340E34003400340134FF
:10121000003400340034003400340034003400342E
:1012200000342034003402342034003402342034BA
:1012300000340234203400340234203400340234C8
:101240003F34FF34FE3400340034003400340034C2
:1012500000340034003400340034003400340034EE
:1012600000340034003400340034003400340034DE
:101270000834003400341034003400343034003486
:10128000003420340034003430340034003410345E
:1012900000340034083400340034003400340034A6
:1012A000003400340034003400340134003400349D
:1012B000013400340034013400340034013400348B
:1012C000003401340034003401340034003401347B
:1012D000003400340134003400340134003400346C
:1012E000013400340034013400340034013400345B
:1012F000003400340034003400340034003400344E
:1013000020340034003420340034003410340034ED
:10131000003410340034003400340034003400341D
:10132000003400340034003400340034003400341D
:10133000003400340034003400340034003400340D
:10134000F03400341934F83400341B3418340034C9
:101350002234083400342634083400342434083469
:1013600000342434103400343F34F83400341F3453
:10137000F8340034003408340034003418340034B5
:10138000003400340434003400340734FF34F834BB
:101390000F34FF34F034003418341834003410346F
:1013A0000834003420340834003420340834003445
:1013B0003034183400341F34F03400340F34C03467
:1013C0000034003400340034003400340034073476
:1013D000C03400341F34F034003418343034003456
:1013E00020340834003420340834003420340834E5
:1013F00000343C34083400341C34103400340034DD
:1014000060340034003400340034003400340034DC
:101410000034003400340734C03400341F34F03456
:101420000034383418340034203408340034203484
:1014300008340034203408340434103410340734B1
:10144000FF34F8340F34FF34F034003400341034F7
:1014500000340034003400340034003400340034EC
:10146000003400340734C03400341F34F034003406
:101470001234303400342234183400342234083426
:1014800000342234083400343234083400341E343A
:10149000103400340E34203400340034003400346E
:1014A0000034003400342034003400342034083454
:1014B0000034203408340134FF34F8340334FF346A
:1014C000F834063420340834043420340834043426
:1014D000203408340734203400340334003400341A
:1014E000003400340034003400340034003400345C
:1014F0000E3400340E346E3400341F34F3340034B0
:101500003134B13400342034B13400342034B134B7
:1015100000343134913400341F34133400342E3409
:101520001E34003420340E3400343034003400349F
:10153000003400340434003408340734FF34F83401
:101540000F34FF34F83400341034083400342034BD
:1015500000340034203400340034203408340034A3
:101560003F34F83400341F34F83400340034083485
:1015700000340034003400340034003400340034CB
:10158000003400342034083400342034083400346B
:101590002034083406343F34F83406343F34F83409
:1015A000003400340834003400340834003400348B
:1015B0000834003400340034003400340034003483
:1015C0000034003400340034003400340034033478
:1015D0000034003403340034203401340034203427
:1015E000013400342034033406343F34FE340634EE
:1015F0003F34FC3400340034003400340034003410
:101600000034003400340034003400340434003436
:1016100008340734FF34F8340F34FF34F83400341E
:101620000134883400340334003400342F34C0349F
:1016300000343834F8340034203438340034203462
:1016400008340034003408340034003400340034EA
:1016500000340034003400340034043400340834DE
:101660000434003408340434003408340734FF34BC
:10167000F8340F34FF34F8340034003408340034C4
:1016800000340834003400340834003400340034AA
:1016900000340034003400342034083400343F3443
:1016A000F83400343F34F834003410340834003453
:1016B0002034003400343F34F83400343F34F834FC
:1016C00000341034083400342034003400343F3403
:1016D000F83400343F34F834003400340834003433
:1016E0000034003400342034083400343F34F834FB
:1016F00000343F34F83400341034083400341034EB
:1017000000340034203400340034203408340034F1
:101710003F34F83400341F34F834003400340834D3
:101720000034003400340034003400340034073412
:10173000C03400340F34F034003418343034003402
:101740003034083400342034083400342034083471
:1017500000343034083400341834303400340F345A
:10176000F03400340734C034003400340034003422
:101770000034003400342034013400343F34FF346A
:1017800000343F34FF34003410341134003420343A
:101790000934003420340834003420340834003450
:1017A0003034383400341F34F03400340F34C03453
:1017B0000034003400340034003400340034073482
:1017C000C03400341F34F03400343834183400345A
:1017D00020340834003420340834003420340934F0
:1017E00000341034113400341F34FF3400343F34DB
:1017F000FF34003400340134003400340034003449
:1018000020340834003420340834003420340834C0
:1018100000343F34F83400343F34F83400340834B2
:1018200008340034103408340034203408340034D0
:101830002034003400343034003400343034003488
:1018400000340034003400340034003400340034F8
:10185000003400340C34783400341E34183400342E
:101860003334083400342334083400342134083449
:101870000034213488340034213498340034303436
:10188000F034003438346034003400340034003430
:101890000034003400342034003400342034003468
:1018A0000034203400340034FF34F0340334FF3487
:1018B000F834003420340834003420340834003440
:1018C0002034083400340034303400340034003420
:1018D0000034003400340034003400340034203448
:1018E000003400343F34F03400347F34F8340034B2
:1018F0000034183400340034083400340034083420
:1019000000342034103400343F34F83400347F3451
:10191000F034003400341034003400340034003427
:1019200000340034003420340034003430340034C7
:1019300000343C34003400343F34803400342334E9
:10194000F03400340034783400340034703400341F
:101950002334803400343C340034003430340034D8
:1019600000342034003400342034003400343C345B
:10197000003400343F34E03400342334F83400348D
:101980000034E03400342734003400343E34003472
:1019900000343F34E03400342134F834003401346E
:1019A000E03400343E340034003420340034003459
:1019B0000034003400342034083400342034083437
:1019C00000343834383400343E346834003427343A
:1019D000803400340334C83400342C34F8340034F8
:1019E0003834383400342034183400342034083487
:1019F0000034003400340034003400340034203427
:101A0000003400343034033400343C3401340034C6
:101A10003F34833400342334EC34003400347034E5
:101A200000342334803400343C3400340034203417
:101A300000340034203400340034003400340034E6
:101A400000340034003400340034003438340834B6
:101A500000342034383400342034F8340034233453
:101A6000E83400342F34883400343E3408340034F1
:101A700038340834003420341834003400347034DE
:101A800000340034003400340034003400340034B6
:101A900000340034003400340034003400340034A6
:101AA000003400340034083400340034143400347A
:101AB0001F34F734FC34303400340634203400341E
:101AC0000234003400340034003400340034003474
:101AD0000034003400340034003400340034003466
:101AE0000034003400340034003400340034003456
:101AF0000034FF34FF34FF34003400340034003449
:101B00000034003400340034003400340034003435
:101B10000034003400340034003400340034003425
:101B200000342034003402343034003406341F349E
:101B3000F734FC34003414340034003408340034F6
:101B400000340034003400340034003400340034F5
:101B500000340034003400340034003400340034E5
:101B6000003400341834003400346034003400345D
:101B70004034003400344034003400342034003425
:101B80000034103400340034083400340034043499
:101B9000003400340434003400340C340034003495
:101BA000103400340034080008003C3400340034A1
:101BB0000034FF34FF3450341E3432340F34443494
:101BC0004501A4000030B1000030B2000030B30085
:101BD0000030B4000030B5000030B600BF317B27C4
:101BE0008D3145012435B23140228D31B431742418
:101BF0008D312C30B23140228D31B43174248D318D
:101C00000630B23140228D31B43174248D31BF3170
:101C1000D6278D3103304101D6000830D50077300A
:101C2000890B102ED50B102ED60B102EBF317B2713
:101C30008D3103144501240DB23140228D31B43170
:101C400074248D31003A031D882EB231B8228D31B3
:101C50004101D500D60155084501A50041015608AE
:101C60004501A600B03131208D31B231B8228D311D
:101C70004101D500D60155084501A700410156088C
:101C80004501A800B03131208D31B231B8228D31FB
:101C90004101D500D60155084501A900410156086A
:101CA0004501AA00B03131208D31B231B8228D31D9
:101CB0004101D500D60155084501AB004101560848
:101CC0004501AC00B03131208D31B231B8228D31B7
:101CD0004101D500D60155084501AD004101560826
:101CE0004501AE00B03131208D31B231B8228D3195
:101CF0004101D500D60155084501AF004101560804
:101D00004501B000B0314B208D31BF31D6278D3128
:101D1000450125084101D600D501450127084101AB
:101D200055044501A0002808410156044501A100C1
:101D30002B084101D600D50145012D08410155046C
:101D40004501A2002E08410156044501A3000030C0
:101D50004001DB003430DC00C230DD00FF30CB005E
:101D60007F30CC004730CD000030BB002F30BC00AE
:101D70004330BD00450121084001AE004501200867
:101D80004001AD00BF31EB278D3140012D08BE0071
:101D90002E08BF002F08C000AA31F8228D31400163
:101DA0003B08CE003C08CF003D08D000AA314F22AE
:101DB0008D3140014B08DE004C08DF004D08E0008B
:101DC000AE3112268D3140015B084501B100400162
:101DD0005C084501B20040015D084501B300FF30D9
:101DE0004001CB007F30CC004730CD000030BB003D
:101DF000C830BC004230BD00450123084001AE00A0
:101E0000450122084001AD00BF31EB278D31400173
:101E10002D08BE002E08BF002F08C000AA31F822EE
:101E20008D3140013B08CE003C08CF003D08D0007A
:101E3000AA314F228D3140014B084501B4004001C9
:101E40004C084501B50040014D084501B600310878
:101E50004001A500450132084001A60045013308B4
:101E60004001A7000030A800A030A900C130AA009E
:101E7000B33180238D31031CFA2F00304001A500BF
:101E8000FA30A6004230A700450131084001A80001
:101E9000450132084001A900450133084001AA006C
:101EA000B33180238D31031CFA2F450134084001E2
:101EB000A500450135084001A6004501360840014E
:101EC000A7000030A8000030A9000030AA00B331FC
:101ED00080238D31031CFA2F00304001A500C8304B
:101EE000A6004230A700450134084001A800450182
:101EF00035084001A900450136084001AA00B33168
:101F000080238D31031CFA2F450131084301B000B5
:101F1000450132084301B100450133084301B200D5
:101F2000450134084301B600450135084301B700B7
:101F3000450136084301B800450131084001BE00A3
:101F4000450132084001BF00450133084001C0008F
:101F50000030BB002030BC004130BD00AA31F82267
:101F60008D3140013B08D4003C08D5003D08D60027
:101F7000A931C8218D31400155084301C7004001F6
:101F800054084301C600450134084001D40045010E
:101F900035084001D500450136084001D600A93179
:101FA000C8218D31400155084301CB004001540840
:101FB0004301CA0099304101C700B830C80045014B
:101FC00031084101C900450132084101CA004501FB
:101FD00033084101CB00450134084101CC004501E3
:101FE00035084101CD00450136084101CE0057308A
:101FF000B131AE214501A201A301A001A101080058
:102004008E304001B1003108B200FF3030050319B1
:1020140017280130B036AF0CAE0CAD0C890B0C2870
:102024000130B1003108B20707282D08A5002E0899
:10203400A6002F08A7003208B1003108A800A901A2
:10204400A831712040012508AD002608AE002708FC
:10205400AF0008004101C600400169084101A70022
:10206400400168084101A6004001E80A0319E90A91
:10207400410126088400270885000008A8002808D4
:10208400C50045080319FC2F2530450603196328AC
:10209400460A8600870116000104031960284508D2
:1020A400A60026084001A6004101460A86008701D1
:1020B400413F8A00403F0A0090312E2841014508E3
:1020C400EA2FBE01BF01B601B701400168088400D0
:1020D400690885000008BF315D279031031CAD28D5
:1020E4004101BE01BF010A304001B5000030B60015
:1020F40041013F084001B80041013E084001B700DA
:10210400B0319A209031400136084101BF004001AE
:1021140035084101BE004001680884006908850053
:102124000008D03E4101A600FF3003180030A7008C
:102134002608BE072708BF3D01304001E8070030EC
:10214400E93D68088400690885000008BF315D27FF
:1021540090310318752840016808840069088500D7
:1021640012002E3A031DF9284101371701304001AE
:10217400E8070030E93D4101C301C401400168089A
:102184008400690885000008BF315D279031031C75
:102194009E294001680884006908850000084101FF
:1021A400A600A70144084001B600410143084001CC
:1021B400B5000A30B7000030B800B0319A20903131
:1021C40041012608400135074101A80027084001C4
:1021D400363D4101A9002808D03EC300FF30293D07
:1021E400C40001304001E8070030E93DC028410146
:1021F400C301C40137169E293715B829430844047E
:102204000319102931084402031D0A293008430226
:10221400031810294408B1004308B0003F083102F4
:10222400031D16293E08300203181D293008BE027A
:102234003108BF3B1F29BE01BF01FF304101BE076A
:10224400FF30BF3D3E0A03193F0A03198A29460A93
:10225400860087011600010403193F292030A600D7
:1022640026084001A6004101460A86008701413F35
:102274008A00403F0A0091311F2920304101A60005
:102284004608860087010108860002308700260878
:1022940081000130A60046088600870126088107D0
:1022A4001F29460A860087011600010403197129B3
:1022B4002F08860087010108A60026084001A60011
:1022C4004101460A86008701413F8A00403F0A00D7
:1022D400913101304101A6002608AF078A292F0851
:1022E400860087010108A6004608860087010108C8
:1022F400860002308700260881000130A6002608E7
:10230400AF070130A600460886008701260881072A
:102314000130B0020030B13B300A031D5329310AA9
:1023240003192E285329C530A6002608AF00013012
:10233400B0000030B1000029400169084101A70044
:10234400400168084101A6004001E80A0319E90AAE
:10235400410126088400270885000008C500003ACA
:102364000319FC2F663A0319FE2895290030360517
:10237400A60007303705A7002608270403190C2FE9
:10238400371EC8290630C3000030C40040016A0863
:102394008600870101088400850103308107003F1E
:1023A4004101C000013FC100023FC200400840019A
:1023B400A500410141084001A60041014208400135
:1023C400A7000030A8000030A9000030AA00B331F3
:1023D4008023903103180D2A410140084001A500D3
:1023E400410141084001A600410142084001A70003
:1023F400BE31ED269031400125084101C000400165
:1024040026084101C100400127084101C2000330F0
:10241400B6040030B7044101B801B90142084104CF
:1024240040040319DB2AC03086008701403FA60020
:10243400413FA700423FA800433FA9000F30A936FF
:10244400A80CA70CA60C890B212AFF302605AA008C
:1024540000302705AB002A08823EB800FF302B3D30
:10246400B900FF30B807FF30B93D03304001B50073
:102474000030B600410139084001B8004101380874
:102484004001B700B0319A20903140013608410133
:10249400B900400135084101B8000A304001AC00E0
:1024A4000030AD00410139084001AF004101380856
:1024B4004001AE00B631A926903140012D084101FA
:1024C400B90040012C084101B800B91F6D2AFF3042
:1024D400B807FF30B93D3803FF3AA531BA2590312A
:1024E40040014B084101BA0040014C084101BB00C6
:1024F40040014D084101BC0040084001BB004101BE
:1025040041084001BC00410142084001BD004101B5
:102514003A084001BE0041013B084001BF004101AF
:102524003C084001C000AA31F822903140013B0828
:102534004101BA0040013C084101BB0040013D0893
:102544004101BC003A084001A50041013B0840019B
:10255400A60041013C084001A7000030A8008030DB
:10256400A9003F30AA00B331802390310318BF2A59
:10257400FF304101B807FF30DA2A41013A0840012F
:10258400A50041013B084001A60041013C0840016F
:10259400A7000030A8002030A9004130AA00B331C0
:1025A40080239031031CDB2A01304101B80700303D
:1025B400B93D41014408803AA60080302602031D3B
:1025C400E52A0D30430203180E2B41014308A431C0
:1025D4005424903140014B08DB004C08DC004D08CA
:1025E400DD00410140084001DE0041014108400195
:1025F400DF00410142084001E000AE311226903173
:1026040040015B084101C00040015C084101C10078
:1026140040015D084101C20041013908803AA60029
:1026240080302602031D182B0A3038020318412B70
:1026340041014208410440040319A02B4008400111
:10264400D400410141084001D50041014208400144
:10265400D600A931C82190314001570856045504C9
:102664005404031DA02B41013908803AA600803090
:102674002602031D3F2B02303802031CA02B41010C
:102684003A084001A50041013B084001A600410170
:102694003C084001A7007030A8008930A9004030F0
:1026A400AA00B3318023903103185A2BF7305B2BE7
:1026B400F8304101B807FF30B93D3808A531BA25D3
:1026C400903140014B084101BA0040014C084101DE
:1026D400BB0040014D084101BC0040084001A50079
:1026E400410141084001A600410142084001A70000
:1026F40041013A084001A80041013B084001A900FA
:1027040041013C084001AA00AB31AC2390314001A7
:1027140028084101B500400127084101B4004001E7
:1027240026084101B300400125084101B2000030F0
:10273400C0000030C1000030C200EF2B410140084E
:102744004001D400410141084001D5004101420843
:102754004001D600A931C8219031400157084101F8
:10276400B500400156084101B4004001550841013B
:10277400B300400154084101B20035084001B000E3
:10278400410134084001AF00410133084001AE006B
:10279400410132084001AD009031022090314001E6
:1027A4002D084101A00040012E084101A100400173
:1027B4002F084101A2004008A3004108A4004208D8
:1027C400A500B231E222903141012008C000210865
:1027D400C1002208C200B801B901C501C50A0A3006
:1027E40045060319222C4508A600A701A635A70D06
:1027F400A635A70D003026078400B830273D850094
:10280400003FA800013FA900023FAA00033FAB001C
:102814002B083502031D182C2A083402031D182C1A
:1028240029083302031D182C28083202031C222C09
:102834000130A6002608C5070A304506031DF52BFE
:102844004508A600A701A61BA70343082607A8005E
:102854004408273DA90038082807AA003908293D5B
:10286400AB002A08BE022B08BF3B430844040319EB
:102874003F2CFF30BE07FF30BF3D03303605A600B6
:1028840000303705A7002608270403194D2CFF3014
:10289400BE07FF30BF3D3F08803AA60080302602C5
:1028A400031D562C01303E02031C852C4101460AAF
:1028B400860087011600010403196F2C2030A6003E
:1028C40026084001A6004101460A86008701413FCF
:1028D4008A00403F0A009431822C20304101A60036
:1028E4004608860087010108860002308700260812
:1028F40081000130A600460886008701260881076A
:10290400FF3041014A2C033041013605A600003056
:102914003705A700260827040319B92C460A8600A0
:102924008701160001040319A62C2D30A6002608E1
:102934004001A6004101460A86008701413F8A0002
:10294400403F0A009431B92C2D304101A6004608BD
:10295400860087010108860002308700260881006E
:102964000130A60046088600870126088107FF304B
:102974004101A6002608C507450A0319702D45081C
:10298400A600A701A635A70DA635A70D003026077A
:102994008400B830273D8500003F4001A500013F79
:1029A400A600023FA700033FA800410135084001EB
:1029B400AC00410134084001AB004101330840013F
:1029C400AA00410132084001A900B631FB2690312A
:1029D400400128084101BD00400127084101BC0015
:1029E400400126084101BB00400125084101BA000D
:1029F40000304001A8000030A7000030A6000A30D3
:102A0400A50041013D084001AC0041013C084001E2
:102A1400AB0041013B084001AA0041013A084001D2
:102A2400A900B431F6249031400128084101BD00C9
:102A3400400127084101BC00400126084101BB00B8
:102A4400400125084101BA00460A860087011600A4
:102A5400010403193D2D3A08303EA6002608400122
:102A6400A6004101460A86008701413F8A00403F93
:102A74000A009531B92C41013A08303EA82C410195
:102A8400460A86008701160001040319582D3030C8
:102A9400A60026084001A6004101460A86008701D7
:102AA400413F8A00403F0A0095316B2D303041018F
:102AB400A6004608860087010108860002308700C8
:102AC400260881000130A6004608860087012608F2
:102AD4008107FF304101B807FF30B93D3908803A1A
:102AE400A60080302602031D792D01303802031818
:102AF400412D41014408803AA60080302602031D7E
:102B0400852D09304302031C8A2D083041018C2D88
:102B140041014308A6002608C5004508A600A701F0
:102B2400A61BA7032608C3022708C43B45080319AC
:102B3400C42D460A86008701160001040319B12D2D
:102B44002E30A60026084001A6004101460A860050
:102B54008701413F8A00403F0A009531C42D2E3041
:102B64004101A6004608860087010108860002305C
:102B74008700260881000130A600460886008701E8
:102B84002608810741014508A531BA259031400145
:102B94004B084101AC0040014C084101AD0040012B
:102BA4004D084101AE002C084001BE0041012D0832
:102BB4004001BF0041012E084001C000410140080E
:102BC4004001BB00410141084001BC0041014208F1
:102BD4004001BD00AA31F822903140013B08D400E5
:102BE4003C08D5003D08D600A931C82190314001E8
:102BF40057084101B500400156084101B4004001A5
:102C040055084101B300400154084101B200FF30AE
:102C1400A6002608C507450A0319072F4508A6007C
:102C2400A701A635A70DA635A70D003026078400F9
:102C3400B830273D8500003F4001A500013FA600B4
:102C4400023FA700033FA800410135084001AC0042
:102C5400410134084001AB00410133084001AA009E
:102C6400410132084001A900B631FB2690314001F0
:102C740028084101BD00400127084101BC00400172
:102C840026084101BB00400125084101BA0000307B
:102C94004001A8000030A7000030A6000A30A500BB
:102CA40041013D084001AC0041013C084001AB003A
:102CB40041013B084001AA0041013A084001A90032
:102CC400B431F6249031400128084101BD0040018F
:102CD40027084101BC00400126084101BB00400116
:102CE40025084101BA00460A86008701160001043E
:102CF40003198C2E3A08303EA60026084001A6008F
:102D04004101460A86008701413F8A00403F0A008C
:102D14009631A02E41013A08303EA60046088600AE
:102D240087010108860002308700260881000130EF
:102D3400A600460886008701260881074101450848
:102D4400A600A701A635A70DA635A70D00302607B6
:102D54008400B830273D8500003F4001A500013FB5
:102D6400A600023FA700033FA80041013508400127
:102D7400AC00410134084001AB004101330840017B
:102D8400AA00410132084001A900B431F62490316F
:102D9400400128084101B500400127084101B40061
:102DA400400126084101B30040012508072E460AC8
:102DB40086008701160001040319EF2E3030A600A7
:102DC40026084001A6004101460A86008701413FCA
:102DD4008A00403F0A009631022F30304101A6009C
:102DE400460886008701010886000230870026080D
:102DF40081000130A6004608860087012608810765
:102E0400FF304101C307FF30C43D430844040319A4
:102E14002E28D92E43084404031D1A2F35083404E0
:102E240033043204031D1A2F0130C3070030C43D9C
:102E34004508A600A701A61BA7032708803AA800F7
:102E44004408803A2802031D292F43082602031848
:102E5400312F41014308A6002608C500492F41012E
:102E64004508A600A701A61BA7034408803AA800AA
:102E74002708803A2802031D412F2608430203181D
:102E8400492F41014508C300C401C31BC4034101C8
:102E94003E083F0403195C2F03303605A6000030BA
:102EA4003705A7002608270403195C2FFF30BE0747
:102EB400FF30BF3D371F732F4408803AA6003F08F8
:102EC400803A2602031D682F3E0843020318702F20
:102ED40041014308BE024408BF3B732F4101BE01B8
:102EE400BF014508A600A701A61BA7032708803A2F
:102EF400A8003F08803A2802031D822F3E082602BC
:102F040003188F2F41014508A600A701A61BA7039C
:102F14002608BE022708BF3B922F4101BE01BF0114
:102F24003E083F040319C82F460A8600870116008D
:102F340001040319AC2F2030A60026084001A60086
:102F44004101460A86008701413F8A00403F0A004A
:102F54009731BF2F20304101A60046088600870123
:102F64000108860002308700260881000130A6008F
:102F740046088600870126088107FF304101BE0705
:102F8400FF30BF3D3E083F04031D962F0330360536
:102F9400A60000303705A7002608270403192E28A9
:102FA400460A86008701160001040319E82F2D3014
:102FB400A60026084001A6004101460A86008701B2
:102FC400413F8A00403F0A0097312E282D304101AD
:102FD400A6004608860087010108860002308700A3
:102FE400260881000130A6004608860087012608CD
:102FF40081072E284001E801E9010800003400346B
:10300400003400340034003400340034003400341C
:10301400003400340034003400340034003400340C
:1030240000340034003400341F34CC3400340C3405
:1030340000340034003400340034003400340034EC
:10304400083400343034003460340034083400343C
:10305400303400346034003400340034023420341A
:103064000334FC341E342034023420340334FC345E
:103074001E3420340234203400340034003400344C
:103084000E341834113404343F34FF34103484348F
:103094000C34783400340034003400340F340034F9
:1030A400103484340F3438340034C0340734783462
:1030B40018348434003478340034003400347834E0
:1030C4000F3484341034C434113424340E3498341A
:1030D4000034E434003484340034083408340034D4
:1030E4006834003470340034003400340034003464
:1030F400003400340034003400340034003400342C
:1031040000340034003400340734E0341834183404
:1031140020340434403402340034003400340034A5
:103124004034023420340434183418340734E0347E
:1031340000340034003400340034003402344034A9
:1031440002344034013480340F34F0340134803498
:1031540002344034023440340034003400348034C7
:1031640000348034003480340F34F8340034803434
:1031740000348034003480340034003400340134AA
:1031840000340D3400340E34003400340034003480
:10319400003400340034003400340034003400348B
:1031A400003480340034803400348034003480347B
:1031B40000348034003480340034803400340034EB
:1031C40000340C3400340C34003400340034003443
:1031D400003400340034003400340034003400344B
:1031E400003406340034183400346034013480343C
:1031F40006340034183400342034003400340034ED
:103204000734F034083408341034043410340434EB
:10321400083408340734F034003400340034003403
:1032240008340434083404341F34FC3400340434C3
:1032340000340434003400340034003400340034E6
:103244000E340C3410341434103424341034443414
:10325400113484340E340C3400340034003400341B
:103264000C34183410340434113404341134043458
:10327400123488340C347034003400340034003494
:103284000034E03403342034043424340834243443
:103294001F34FC340034243400340034003400344B
:1032A4001F34983410348434113404341134043405
:1032B4001034883410347034003400340034003452
:1032C4000734F034083488341134043411340434A9
:1032D400183488340034703400340034003400343A
:1032E4001C340034103400341034FC3413340034EF
:1032F4001C340034103400340034003400340034FE
:103304000E34383411344434103484341034843456
:10331400113444340E34383400340034003400346E
:103324000734003408348C341034443410344434B6
:10333400083488340734F034003400340034003462
:10334400003400340034003403340C3403340C34BB
:1033540000340034003400340034003400340034C9
:1033640000340034003401340134063400340034B1
:1033740000340034003400340034003400340034A9
:1033840000348034013440340234203404341034A2
:103394000834083410340434003400340234203443
:1033A40002342034023420340234203402342034F1
:1033B4000234203402342034003400340034003425
:1033C40010340434083408340434103402342034FF
:1033D4000134403400348034003400340034003488
:1033E4000E3400341234003410340C3410346C3481
:1033F400103480340F340034003400340334E034A7
:103404000C3418341334E434143424341734C434EA
:10341400083428340734D0340034003400340434FD
:1034240000343C340334C4341C3440340734403452
:103434000034E43400341C340034043410340434D0
:103444001F34FC341134043411340434113404347E
:103454000E34883400347034003400340334E034DF
:103464000C34183410340434103404341034043458
:10347400103408341C341034003400341034043450
:103484001F34FC3410340434103404341034043441
:10349400083408340734F03400340034103404346D
:1034A4001F34FC3411340434113404341734C43458
:1034B4001034043408341834003400341034043420
:1034C4001F34FC3411340434113400341734C03440
:1034D4001034003408340034003400340334E0344D
:1034E4000C34183410340434103404341034443498
:1034F4001C34783400344034003400341034043440
:103504001F34FC3410348434003480340034803468
:10351400103484341F34FC34103404340034003444
:1035240010340434103404341F34FC3410340434A0
:1035340010340434003400340034003400340334D0
:103544000034013410340134103401341F34FE3497
:103554001034003410340034003400341034043493
:103564001F34FC341134043403348034143464348C
:1035740018341C341034043400340034103404344B
:103584001F34FC3410340434003404340034043460
:103594000034043400340C34003400341034043463
:1035A4001F34FC341F3400340034FC341F34003422
:1035B4001F34FC3410340434003400341034043424
:1035C4001F34FC340C340434033400340034E03449
:1035D400103418341F34FC34103400340734F034FD
:1035E40008340834103404341034043410340434EB
:1035F400083408340734F03400340034103404340C
:103604001F34FC3410348434103480341034803447
:10361400103480340F340034003400340734F03470
:1036240008341834103424341034243410341C3442
:1036340008340A340734F2340034003410340434C7
:103644001F34FC3411340434113400341134C034C4
:10365400113430340E340C34003404340034003467
:103664000E341C341134043410348434103484344F
:10367400103444341C3438340034003418340034E6
:1036840010340034103404341F34FC341034043443
:10369400103400341834003400340034103400344E
:1036A4001F34F83410340434003404340034043443
:1036B400103404341F34F83410340034103400341B
:1036C4001E3400341134E03400341C3400347034BB
:1036D400133480341C340034103400341F34C034A8
:1036E40010343C340034E0341F3400340034E0340B
:1036F40010343C341F34C0340034003410340434E7
:1037040018340C34163434340134C0340134C03425
:103714001634343418340C34103404341034003473
:103724001C340034133404340034FC3413340434AF
:103734001C340034103400340034003408340434AD
:1037440010341C341034643410348434133404348A
:103754001C3404341034183400340034003400347D
:1037640000340034003400347F34FE3440340234F6
:103774004034023440340234003400340034003421
:10378400303400340C340034033480340034603476
:1037940000341C3400340334003400340034003466
:1037A4004034023440340234403402347F34FE3432
:1037B4000034003400340034003400340034003465
:1037C40000340034203400344034003440340034B5
:1037D40040340034203400340034003400340134E4
:1037E4000034013400340134003401340034013431
:1037F4000034013400340134003401340034003422
:103804004034003440340034203400340034003474
:103814000034003400340034003400340034003404
:1038240000349834013424340134443401344434AD
:10383400013444340034FC3400340434103400348F
:103844001F34FC3400348834013404340134043427
:1038540000348834003470340034003400340034CC
:1038640000347034003488340134043401340434B2
:103874000134043400348834003400340034003417
:103884000034703400348834013404340134043492
:10389400113408341F34FC3400340434003400344C
:1038A4000034F834013444340134443401344434AD
:1038B400013444340034C834003400340034003457
:1038C40001340434013404340F34FC34113404342A
:1038D4001134043411340034183400340034003406
:1038E4000034D634013429340134293401342934E0
:1038F4000134C9340134063400340034103404343F
:103904001F34FC3400348434013400340134003472
:10391400013404340034FC340034043400340034FE
:1039240001340434193404341934FC3400340434B8
:1039340000340434003400340034003400340034DF
:1039440000340334003401340134013419340134B3
:103954001934FE3400340034003400341034043498
:103964001F34FC3400342434003440340134B4347F
:1039740001340C3401340434003400340034003491
:1039840010340434103404341F34FC34003404344C
:10399400003404340034003400340034013404347A
:1039A4000134FC3401340434013400340134FC3473
:1039B40001340434013400340034FC34013404345C
:1039C4000134FC34003484340134003401340034D0
:1039D400013404340034FC3400340434003400343E
:1039E4000034F8340134043401340434013404342C
:1039F400013404340034F834003400340134013424
:103A04000134FF3400348534013404340134043483
:103A1400003488340034703400340034003400340A
:103A240000347034003488340134043401340434F0
:103A3400013405340134FF340034013401340434D6
:103A4400013404340134FC34003484340134043447
:103A54000134003401348034003400340034003440
:103A64000034CC3401342434013424340134243477
:103A740001342434013498340034003400340034E4
:103A840001340034013400340734F834013404348C
:103A9400013404340034003400340034013400347C
:103AA4000134F8340034043400340434003404346D
:103AB400013408340134FC34003404340134003457
:103AC400013480340134703400340C340034103444
:103AD4000134603401348034013400340134F0346E
:103AE40001340C34003430340134C0340034303404
:103AF40001340C340134F034013400340034003423
:103B04000134043401348C3400347434013470349A
:103B140001348C340134043400340034013401346D
:103B2400013481340134713400340E3400341834D7
:103B340001346034013480340134003400340034FE
:103B44000134843401340C340134343401344434C5
:103B54000134843401340C3400340034003400342F
:103B640000340034003400340034003401340034B0
:103B74003E34FC34403402344034023400340034E3
:103B8400003400340034003400340034FF34FF3493
:103B94000034003400340034003400340034003481
:103BA40040340234403402343E34FC3401340034B2
:103BB4000034003400340034003400340034003461
:103BC40060340034803400348034003440340034B1
:103BD40040340034203400342034003400340034C1
:103BE4000034003400340034003400340034003431
:103BF4000034003400340034003400343F344034A2
:103C04000034003400340034003400340034003410
:103C14003034003440340034303400344034003420
:103C240000340034093400340B34C0343D340034DF
:103C34000B34C0343D340034093400341834C034F7
:103C4400243440347F34E0342234403431348034FA
:103C540000340034183400342434C0341B340034A9
:103C64000D348034323440340134803403348034AD
:103C74001C344034273440341C34803407344034FA
:103C840000344034103400346034003400340034E0
:103C94000034003400340034003400340034003480
:103CA40000340034003400341F3480342034403471
:103CB4004034203400340034403420342034403440
:103CC4001F348034003400340034003409340034A8
:103CD400063400341F34803406340034093400348C
:103CE4000034003404340034043400343F34803469
:103CF4000434003404340034003400340034103408
:103D040000346034003400340034003400340034AF
:103D140000340034043400340434003404340034F3
:103D240004340034043400340034003400340034E7
:103D3400003440340034003400340034003400349F
:103D440000340034003420340134C03406340034E8
:103D54003834003440340034003400341F348034A8
:103D64002034403420344034203440341F348034F0
:103D74000034003400340034103440343F34C03450
:103D84000034403400340034003400341834C03477
:103D94002134403422344034243440341834403400
:103DA400003400341034803420344034243440341B
:103DB400243440341B34803400340034023400345E
:103DC4000D340034113400343F34C03401344034F1
:103DD400003400343C3480342434403424344034BB
:103DE4002434403423348034003400341F34803489
:103DF4002434403424344034343440340334803460
:103E04000034003430340034203400342734C034D7
:103E14003834003420340034003400341B3480340B
:103E24002434403424344034243440341B34803427
:103E3400003400341C3400342234C034223440347E
:103E4400223440341F3480340034003400340034CD
:103E54000034003408344034003400340034003476
:103E6400003400340034003400340034043460344A
:103E7400003400340034003400340034003400349E
:103E8400043400340A3400341134003420348034CF
:103E940040344034093400340934003409340034E3
:103EA400093400340934003400340034003400345C
:103EB4004034403420348034113400340A34003423
:103EC40004340034183400342034003423344034AF
:103ED4002434003418340034003400341F34803463
:103EE4002034403427344034293440341F3440349F
:103EF40000340034003440340734C03439340034DE
:103F04000F3400340134C03400344034203440349D
:103F14003F34C03424344034243440341B3480349B
:103F2400003400341F34803420344034203440348E
:103F3400203440343034803400340034203440346D
:103F44003F34C03420344034203440341F3480346F
:103F540000340034203440343F34C03424344034FA
:103F64002E3440343034C0340034003420344034EF
:103F74003F34C034243440342E34003430340034DC
:103F8400003400340F34003410348034203440348E
:103F94002234403433348034023400342034403406
:103FA4003F34C03404340034043400343F34C03467
:103FB4002034403420344034203440343F34C0343E
:103FC400203440342034403400340034003460342D
:103FD40020342034203420343F34C034203400349E
:103FE40020340034203440343F34C034243440344A
:103FF4000B3400343034C034203440342034403462
:104004003F34C0342034403400344034003440342D
:104014000034C0343F34C0343C3400340334C0343E
:104024003C3400343F34C034003400342034403451
:104034003F34C0340C344034233400343F34C0346F
:10404400203400341F34803420344034203440344D
:10405400203440341F34803400340034203440345D
:104064003F34C0342434403424340034183400340D
:10407400003400341F34803421344034213440343B
:104084002034E0341F34A03400340034203440346D
:104094003F34C03424344034263400341934C0341A
:1040A400003440341834C03424344034243440348C
:1040B4002234403431348034003400343034003419
:1040C400203440343F34C03420344034303400345D
:1040D40000340034203400343F348034003440341D
:1040E400003440343F3480342034003420340034ED
:1040F4003E3400340134C0340734003438340034DE
:1041040020340034383400340734C0343C340034B0
:104114000734C0343834003400340034203440349C
:104124003934C034063400343934C0342034403493
:104134000034003420340034383440340734C0347C
:1041440038344034203400340034003430344034C3
:104154002134C03426344034383440342034C0341C
:104164000034003400340034003400347F34E0344C
:1041740040342034403420340034003400340034DB
:10418400703400340C34003403348034003440344C
:1041940000340034003400344034203440342034BB
:1041A4007F34E0340034003400340034003400340C
:1041B40020340034403400342034003400340034DB
:1041C400003400340034103400341034003410341B
:1041D400003410340034103400341034003400340B
:1041E40000340034403400340034003400340034EB
:1041F4000034003400340034023480340534403454
:10420400053440340334C0340034403420340034A2
:104214003F34C034043440340434403403348034F0
:104224000034003400340034033480340434403423
:104234000434403406344034003400340034003450
:104244000334803404344034243440343F34C034A0
:1042540000344034003400340334803405344034B2
:104264000534403403344034003400340034003422
:10427400043440341F34C0342434403424344034AF
:1042840020340034003400340234E0340534503433
:10429400053450340634503404342034203440344B
:1042A4003F34C03404344034043400340334C03460
:1042B4000034403400340034043440342734C034EF
:1042C40000344034003400340034003400341034FA
:1042D40000341034043410342734E034003400340F
:1042E40000340034203440343F34C034013440348A
:1042F400073400340434C0340434403420344034AB
:10430400203440343F34C03400344034003440342A
:10431400003400340734C034043400340734C03467
:10432400043400340334C0340034003404344034DE
:104334000734C03404344034043400340334C03407
:1043440000344034003400340334803404344034C2
:1043540004344034033480340034003404341034DE
:104364000734F03404345034043440340334803497
:1043740000340034003400340334803404344034D2
:10438400043450340734F0340034103404344034EA
:104394000734C03402344034043400340434003468
:1043A40000340034003400340634403405344034DE
:1043B400053440340434C034003400340034003450
:1043C400043400341F348034043440340034403422
:1043D400003400340434003407348034003440346E
:1043E400043440340734C0340034403404340034DA
:1043F400073400340434C0340134803406340034C7
:1044040004340034063400340134C0340734003436
:104414000134C034063400340034003404344034ED
:104424000634C034013400340634C0340434403417
:104434000034003404341034073410340434E034C9
:10444400013480340634003404340034003400343D
:10445400043440340534C034063440340434403425
:1044640000340034003400340034003404340034A4
:104474007B34E034403420340034003400340034DD
:104484000034003400340034FF34F0340034003499
:104494000034003400340034403420347B34E034BD
:1044A4000434003400340034003400344034003424
:1044B4008034003440340034203400342034003458
:1044C40040340034400126084201E8004001250838
:1044D4004201E700080040015908033E3D3E8600C2
:1044E400013087000108DB005B08E100182BB331C1
:1044F400F9230800AF3108270800BF318C270800D2
:1045040040015908063E3D3E8600013087000108FF
:10451400DB005B084201EB0003304001DB005B0879
:10452400AD000030AE00AF000330B6315B260800AA
:1045340001304001DB005B084101D9000800013073
:104544004001DB005B084201B70008004001590844
:10455400053E3D3E8600013087005908043E3D3E3D
:104564008400013085000008DF000108DE00E60158
:10457400E7015F086702031DC12A5E08660203188B
:10458400080059086607083E3D3E86000130870052
:104594000108DB00DC015B08DC00DB015B08E400F4
:1045A4005C08E50059086607093E3D3E8600013077
:1045B40087000108DB00DC015B08E4075C08E53DDB
:1045C40059083D3E6607063EB731A327A231400194
:1045D400DB005B08E0006408043EDB000030653D5E
:1045E400DC005B08E6075C08E73DBB2AB5317F25A4
:1045F400080040015908063E3D3E86000130870010
:104604000108DB005B08E2005908073E3D3E8600D6
:10461400013087000108DB005B08E3006308DB006E
:104624005B08A5006208B031002008004001610861
:10463400003A0319792A013A03197C2A033A031927
:104644007F2A013A0319822A073A03199A2A013A5E
:104654000319A12A033A0319A82A0E3A0319F82ABE
:10466400063A0319FB2A362B0800253086008701F9
:10467400403F4001AB00413FAC00423FAD00433FEF
:10468400AE0003102D0D2E0DAF002F08B800380812
:10469400031D552B0030A8000030A7000030A600F1
:1046A4000030A5000800283086008701403FAB0099
:1046B400413FAC00423FAD00433FAE0003102D0D1F
:1046C4002E0DAF002F08B7003708031D722B0030E2
:1046D400A8000030A7000030A6000030A5000800A4
:1046E4002530860087010030810441310030810487
:1046F400413180308104413100308104253086000D
:104704008701FF3081054131FF3081054131FF30A0
:104714008105413100308105283086008701003051
:1047240081044131003081044131803081044131C0
:1047340000308104283086008701FF308105413133
:10474400FF3081054131FF30810541310030810561
:104754000030B6000030B5000030B4000030B300C3
:104764007F30B802A0303707AB002B08B8022030E6
:10477400AB002B08B7000130B335B40DB50DB60D41
:10478400890BBE2B283086008701403FAB00413F98
:10479400AC00423FAD00433FAE00253086008701A8
:1047A400403FAF00413FB000423FB100433FB20041
:1047B4002E083202031DE82B2D083102031DE82BBD
:1047C4002C083002031DE82B2B082F02031C052C98
:1047D400283086008701403FAB00413FAC00423F98
:1047E400AD00433FAE002530860087012B088102CF
:1047F40041312C08813B41312D08813B41312E0848
:10480400813B7D3133142530860087018135413168
:10481400810D4131810D4131810D7D310130B7026E
:10482400031DBD2BB81F322C3808803A9F3E031855
:10483400242C0030A8000030A7000030A60000306F
:10484400A50008000130B636B50CB40CB30C890BC6
:10485400252C0130AB002B08B80703194B2C242C52
:1048640020303802031C482C0030A8000030A70078
:104874000030A6000030A50008000130B335B40DA7
:10488400B50DB60D890B402C0130B8023808031D54
:104894003F2C3608A8003508A7003408A6003308C2
:1048A400A50008004001D8006E305802031C152DE5
:1048B4000A30AC000030AD005808CE00CF014E08DD
:1048C400A7004F08A8006430A5000030A600B53149
:1048D4003925A43140012608AF002508AE00B631C1
:1048E400A926A43140012C08093EB50000302D3D15
:1048F400B6000330B7000030B800B0319A20A431BC
:10490400400136088500350884004F308407B830EC
:10491400853D003FBB00013FBC00023FBD00643049
:10492400AC000030AD005808D000D1015008AE00F2
:104934005108AF00B631A926A43140012C08123E1B
:10494400B50000302D3DB6000330B7000030B8008C
:10495400B0319A20A431400136088500350884001E
:104964004F308407B830853D003FBE00013FBF0093
:10497400023FC000AA31F822A43140013B08D5000F
:104984003C08D6003D08D7005808CE00CF014E0899
:10499400A7004F08A8000A30A5000030A600B531D2
:1049A4003925A43140012608B6002508B500033096
:1049B400B7000030B800B0319A20A4314001360865
:1049C4008500350884004F308407B830853D003FAA
:1049D400BB00013FBC00023FBD005508BE005608A5
:1049E400BF005708C000AA31F822A43140013B0897
:1049F400D2003C08D3003D08D4000030BB00003096
:104A0400BC003F30BD005208BE005308BF0054082C
:104A1400C000AA31F82240013B08CB003C08CC007E
:104A24003D08CD0008000B305802031C8D2D58089A
:104A3400CE00CF014E08A7004F08A8000A30A500F9
:104A44000030A600B5313925A43140012608B6004E
:104A54002508B5000330B7000030B800B0319A2003
:104A6400A431400136088500350884004F3084079E
:104A7400B830853D003FBB00013FBC00023FBD0094
:104A84000A30AC000030AD005808D000D101500805
:104A9400AE005108AF00B631A926A43140012C085C
:104AA400093EB50000302D3DB6000330B70000309C
:104AB400B800B0319A20A431400136088500350889
:104AC40084004F308407B830853D003FBE00013F6D
:104AD400BF00023FC000AA31F822A43140013B08C4
:104AE400D5003C08D6003D08D7000030BB0000309C
:104AF400BC003F30BD005508BE005608BF00570833
:104B0400C000AA31F82240013B08CB003C08CC008D
:104B14003D08CD0008000030BB000030BC003F3031
:104B2400BD005808CE00CF014E08B5004F08B600AE
:104B34000330B7000030B800B0319A20A4314001EE
:104B440036088500350884004F308407B830853D29
:104B5400003FBE00013FBF00023FC000AA31F8225F
:104B640040013B08CB003C08CC003D08CD000800C8
:104B74004001D300D31FE02ED309D30A5308803A4F
:104B8400123E031C642E0A30AC000030AD00530802
:104B9400A700A801A71BA8036430A5000030A60045
:104BA400B5313925A53140012608AF002508AE00EE
:104BB400B631A926A53140012C08093EB5000030C4
:104BC4002D3DB6000330B7000030B800B0319A2054
:104BD400A531400136088500350884004F3084072C
:104BE400B830853D003FBB00013FBC00023FBD0023
:104BF4006430AC000030AD005308AE00AF01AE1B12
:104C0400AF03B631A926A53140012C08123EB500E8
:104C140000302D3DB6000330B7000030B800B0318D
:104C24009A20A531400136088500350884004F30AC
:104C34008407B830853D003FBE00013FBF00023FFE
:104C4400C000AA31F822A53140013B08D0003C083D
:104C5400D1003D08D2005308A700A801A71BA80350
:104C64000A30A5000030A600B5313925A531400130
:104C74002608B6002508B5000330B7000030B80098
:104C8400B0319A20A53140013608850035088400EA
:104C94004F308407B830853D003FBB00013FBC0066
:104CA400023FBD005008BE005108BF005208C000BA
:104CB400AA31F82240013B08CB003C08CC003D0857
:104CC400CD0008005308803A753E031CC32E5308D8
:104CD400A700A801A71BA8030A30A5000030A6005E
:104CE400B5313925A53140012608B6002508B5009F
:104CF4000330B7000030B800B0319A20A53140012C
:104D040036088500350884004F308407B830853D67
:104D1400003FBB00013FBC00023FBD000A30AC00B5
:104D24000030AD005308AE00AF01AE1BAF03B63187
:104D3400A926A53140012C08093EB50000302D3DBF
:104D4400B6000330B7000030B800B0319A20A53166
:104D5400400136088500350884004F308407B83098
:104D6400853D003FBE00013FBF00023FC000AA31A5
:104D7400F82240013B08CB003C08CC003D08CD00A4
:104D840008005308CE00CF014E08B5004F08B60006
:104D94000330B7000030B800B0319A204001360823
:104DA4008500350884004F308407B830853D003FC6
:104DB400CB00013FCC00023FCD0008005308803AED
:104DC400123E031C842F0A30AC000030AD0053089F
:104DD400A700A801A71BA8036430A5000030A60003
:104DE400B5313925A53140012608AF002508AE00AC
:104DF400B631A926A53140012C08093EB500003082
:104E04002D3DB6000330B7000030B800B0319A2011
:104E1400A531400136088500350884002830840710
:104E2400B830853D003FBB00013FBC00023FBD00E0
:104E34006430AC000030AD005308AE00AF01AE1BCF
:104E4400AF03B631A926A53140012C08123EB500A6
:104E540000302D3DB6000330B7000030B800B0314B
:104E64009A20A53140013608850035088400283091
:104E74008407B830853D003FBE00013FBF00023FBC
:104E8400C000AA31F822A53140013B08D0003C08FB
:104E9400D1003D08D2005308A700A801A71BA8030E
:104EA4000A30A5000030A600B5313925A5314001EE
:104EB4002608B6002508B5000330B7000030B80056
:104EC400B0319A20A53140013608850035088400A8
:104ED40028308407B830853D003FBB00013FBC004B
:104EE400023FBD005008BE005108BF005208C00078
:104EF400AA31F82240013B08CB003C08CC003D0815
:104F0400CD0008005308803A753E031CE32F530874
:104F1400A700A801A71BA8030A30A5000030A6001B
:104F2400B5313925A53140012608B6002508B5005C
:104F34000330B7000030B800B0319A20A5314001E9
:104F4400360885003508840028308407B830853D4C
:104F5400003FBB00013FBC00023FBD000A30AC0073
:104F64000030AD005308AE00AF01AE1BAF03B63145
:104F7400A926A53140012C08093EB50000302D3D7D
:104F8400B6000330B7000030B800B0319A20A53124
:104F94004001360885003508840028308407B8307D
:104FA400853D003FBE00013FBF00023FC000AA3163
:104FB400F82240013B08CB003C08CC003D08CD0062
:104FC40008005308CE00CF014E08B5004F08B600C4
:104FD4000330B7000030B800B0319A2040013608E1
:104FE40085003508840028308407B830853D003FAB
:104FF400CB00013FCC00023FCD0008004101D901A4
:1050040003304001B3003308AD000030AE00AF0000
:105014000430B6315B2608004001B500B601B70183
:105024007B03031908003708A6003608A5003508D5
:10503400B4003408A700BF31AF27A83140012608C7
:10504400B7002508B6003708A6003608A500A70152
:10505400A70ABF31AF27A83140012608B7002508A9
:10506400B6003708A6003608A500A701BF31AF2750
:10507400A83140012608B7002508B6003708A60065
:105084003608A500A701A70ABF31AF27A831400100
:105094002608B7002508B6003308031D572837082B
:1050A400A6003608A500A7015D283708A600360823
:1050B400A500A701A70ABF31AF27A83140012608E0
:1050C400B7002508B6000330B4003408AD00370833
:1050D400AF003608AE000730B6315B260800400149
:1050E400280803197A28270826042504031D8B2879
:1050F4000030A5000030A6000030A70008000130F1
:10510400AA002A08A8070130A736A60CA50C890B0B
:105114008628FE3027050319A42881280130AA0017
:105124002A08A8070130A507003003180130A60794
:10513400003003180130A7070130A736A60CA50CD0
:10514400890B9F28FF3027050319B12890280130C7
:10515400A8020130A535A60DA70D890BAC28A61B06
:10516400B728023028020318A9282818BF28FF30BE
:10517400A5057F30A605FF30A7050310A80C280855
:10518400AA00AB01AC011030AA35AB0DAC0D890BF4
:10519400C6282A08A5042B08A6042C08A704290855
:1051A40003190800A717080040012608B3002508C2
:1051B400B2002808B5002708B400250826040319FE
:1051C4000800270828040319080033083502031DC2
:1051D400ED28320834020318FD2829083407AB00EF
:1051E4002A08353DAC0033082C02031DFB28320885
:1051F4002B0203182029B601B7012A083702031D20
:1052040005292908360203180800340836078400E3
:105214003508373D85000008AB0036083207AC007E
:105224003708333DAD002C0886002D0887002B0875
:1052340081000130B6070030B73DFF282A08B700C7
:105244002908B60036083704031908003608FF3E5B
:10525400AB00FF30373DAC0034082B078400350821
:105264002C3D85000008AD003608FF3EAE00FF303F
:10527400373DAF002E083207B0002F08333DB10090
:1052840030088600310887002D0881000130B602FD
:105294000030B73B2429233040019C009B01980136
:1052A4009D01990159019001183040019A000C3078
:1052B40059019100C030400196009701DF309200FF
:1052C400DB3059018E00FF30400193000330590157
:1052D4008F0065304001940095017E01D901A5300D
:1052E400CE00FF30C300C030E400DD307C01DB00C1
:1052F400D001DF307E01B800DA017C01D1017E01EA
:10530400E501C4017C01DC017E01B9014030CF001C
:105314007C01E7017E01E6017C01D2017E01BA0134
:105324007C01DD017E01C5017C01E8017E01D00123
:10533400DB01DF30BB00FF30C600FF30D100FF309F
:10534400DC00FB30E700FF307C01D300DF30DE00FF
:105354000F30E900FF307E01BC00FF30C700FF3092
:10536400D200FF30DD00FB30E800FF307C01D400C8
:10537400FF30DF000F30EA0031307D01CD000D3009
:105384007E01A7000F307C01C200080040015408D0
:10539400D8005508D9005608DA000310590D5A0DE3
:1053A400DB005B08E1006108031DE1290030D70040
:1053B4000030D6000030D5000030D4000800540876
:1053C400D8005508D9005608DA001730DA36D90C57
:1053D400D80C890BE8295808DB005B08DC00D517DA
:1053E400FF30D405FF30D5050030D6055408DD0064
:1053F4005508DE005608DF00E0018E30E102E11FAF
:105404001F2A6108803A8F3E0318112A0030D70002
:105414000030D6000030D5000030D4000800013040
:10542400E036DF0CDE0CDD0C890B122A0130D800CB
:105434005808E1070319382A112A18306102031C9D
:10544400352A0030D7000030D6000030D5000030B7
:10545400D40008000130DD35DE0DDF0DE00D890BD1
:105464002D2A0130E1026108031D2C2A5C0803196E
:10547400462ADD09DE09DF09E009DD0A0319DE0A2F
:105484000319DF0A0319E00A6008D7005F08D60091
:105494005E08D5005D08D400080040014E08D10024
:1054A4004F08D2005008D3000310520D530DD400FE
:1054B4005408D9005908031D662A0030CB00003077
:1054C400CC000030CD0008004B08D1004C08D200BD
:1054D4004D08D3000310520D530DD4005408DA00C4
:1054E4005A08031D7C2A0030CB000030CC00003069
:1054F400CD0008000030D6000030D7000030D800BE
:1055040089305A07D1005108D9024E08D1004F08FA
:10551400D2005008D3001030D336D20CD10C890BF2
:105524008E2A5108D4005408DA004B08D1004C08E4
:10553400D2004D08D3001030D336D20CD10C890BD5
:105544009E2A5108D4005408DA068030D10051084C
:10555400DA05CF17FF30CE05FF30CF050030D00578
:10556400CC17FF30CB05FF30CC050030CD0518300B
:10557400D1005108D5000130D635D70DD80D890B8F
:10558400BE2A4D085002031DCD2A4C084F02031DAC
:10559400CD2A4B084E02031CD62A4B08CE024C08D7
:1055A400CF3B4D08D03B56140130CE35CF0DD00D36
:1055B400890BD72A0130D502031DBD2A5608A50040
:1055C4005708A6005808A7005908D1005108A80098
:1055D4005A08D2005208A900A831712040012508B8
:1055E400CB002608CC002708CD00080040013B086A
:1055F400C1003C08C2003D08C3000310420D430D26
:10560400C4004408C5004508031D0F2B0030BB002F
:105614000030BC000030BD0008003E08C1003F0857
:10562400C2004008C3000310420D430DC4004408E7
:10563400CA004A08031D252B0030BB000030BC0003
:105644000030BD0008004A087B3EC1004108C50780
:105654003B08C1003C08C2003D08C3001030C336FB
:10566400C20CC10C890B312B4108C4004408CA0088
:105674003E08C1003F08C2004008C3001030C336D2
:10568400C20CC10C890B412B4108C4004408CA0652
:105694008030C1004108CA05BC17BF17FF30BE05E2
:1056A400FF30BF050030C0050030C6000030C70021
:1056B4000030C8000730C1004108C9003B1C682BFA
:1056C4003E08C6073F08C73D4008C83D0130BD3607
:1056D400BC0CBB0C890B692B0130BE35BF0DC00D52
:1056E400890B6F2B0130C902031D602B0930C100E7
:1056F4004108C9003B1C842B3E08C6073F08C73D30
:105704004008C83D0130BD36BC0CBB0C890B852B51
:105714000130C836C70CC60C890B8B2B0130C9026B
:10572400031D7C2B4608A5004708A6004808A700CF
:105734004508C1004108A8004A08C2004208A9005F
:10574400A831712040012508BB002608BC002708A9
:10575400BD00080040012508AB002608AC0027085E
:10576400AD0003102C0D2D0DAE002E08B40034082E
:10577400031DC52B0030A8000030A7000030A60090
:105784000030A50008002808AB002908AC002A084E
:10579400AD0003102C0D2D0DAE002E08B300330800
:1057A400031DDD2B0030A8000030A7000030A60048
:1057B4000030A5000800A617FF30A505FF30A60598
:1057C4000030A705A917FF30A805FF30A905003050
:1057D400AA050030B2000030B1000030B000003043
:1057E400AF007F30B40298303307AB002B08B4020B
:1057F4001830AB002B08B3000130AF35B00DB10D3C
:10580400B20D890BFF2B2A082702031D0F2C290830
:105814002602031D0F2C28082502031C182C280817
:10582400A5022908A63B2A08A73B2F140130A53559
:10583400A60DA70D890B192C0130B302031DFE2BF5
:10584400B41F402C3408803A973E0318322C0030A1
:10585400A8000030A7000030A6000030A500080012
:105864000130B236B10CB00CAF0C890B332C0130C3
:10587400AB002B08B4070319592C322C183034020E
:10588400031C562C0030A8000030A7000030A600EE
:105894000030A50008000130AF35B00DB10DB20DD8
:1058A400890B4E2C0130B4023408031D4D2C3208F0
:1058B400A8003108A7003008A6002F08A50008009A
:1058C4004001BC00BD01BE017B03031D6B2C0130F4
:1058D40008003E08A6003D08A5003C08B7003708AC
:1058E400A700BF31AF27AC3140012608BE00250810
:1058F400BD003E08A6003D08A5000230B7003708E9
:10590400A700BF31AF27AC3140012608BE002508EF
:10591400BD003E08A6003D08A500A701BF31AF2782
:10592400AC3140012608BE002508BD003E08A60093
:105934003D08A5000430B7003708A700BF31AF27E2
:10594400AC3140012608BE002508BD003E08A60073
:105954003D08A5003308B7003408B8003508B9007D
:105964003608BA001830BA36B90CB80CB70C890B23
:10597400B52C3708BB003B08A700BF31AF27AC31BB
:1059840040012608BE002508BD003E08A6003D08CB
:10599400A5003308B7003408B8003508B900360844
:1059A400BA001030BA36B90CB80CB70C890BD42C29
:1059B4003708BB003B08A700BF31AF27AC3140011B
:1059C4002608BE002508BD003E08A6003D08A50027
:1059D4003308B7003408B8003508B9003608BA00EF
:1059E4000830BA36B90CB80CB70C890BF32C37084D
:1059F400BB003B08A700BF31AF27AC3140012608EC
:105A0400BE002508BD003E08A6003D08A5003308D9
:105A1400B7003708A700BF31AF27AC3140012608D3
:105A2400BE002508BD000330B7003708AD003E08AE
:105A3400AF003D08AE000730B6315B2601300800E8
:105A44004101A601A701A401A501382DB1318C2182
:105A5400AD314101A00057083D3E8600013087006A
:105A6400200881000130D7070030D83D00305802AB
:105A74001F30031957020318452DBF314827AD3194
:105A8400003A031D282D0030410158020730031944
:105A94005702031C08002609A0002709A100A00A38
:105AA4000319A10A57082007A2005808213DA300A2
:105AB40000302302073003192202031CF32D2608A9
:105AC4003D3E86000130870055300106031D742DCC
:105AD4002608013E3D3E860001308700AA300106BB
